:020000040800F2
:10000000480E0020C1010008FB0A0008750900081D
:10001000990A0008470400080D15000800000000B8
:1000200000000000000000000000000009110008AE
:10003000B304000800000000DB0C00089111000868
:10004000DB010008DB010008DB010008DB01000820
:10005000DB010008DB0100087D050008E905000858
:1000600005060008210600083D060008DB0100081F
:10007000DB010008DB010008DB010008DB010008F0
:10008000DB010008DB010008DB010008DB010008E0
:10009000DB010008DB010008DB010008590600084D
:1000A000DB010008DB010008DB010008DB010008C0
:1000B0006D120008DB010008DB010008DB0100080D
:1000C000DB010008DB010008DB010008DB010008A0
:1000D000DB010008DB010008DB010008DB01000890
:1000E00099050008DB010008DB010008DB010008BE
:1000F000DB010008DB010008DB010008DB01000870
:10010000DB010008DB010008DB010008DB0100085F
:10011000DB010008DB010008DB010008DB0100084F
:10012000DB010008DB010008DB010008DB0100083F
:10013000DB010008DB010008DB010008DB0100082F
:10014000DB010008DB010008DB010008DB0100081F
:10015000DB010008DB010008DB0100087113000867
:100160008109000879090008DB010008DB010008AB
:10017000DB010008DB010008DB01000800000000D3
:10018000DB010008DB010008DB010008DB010008DF
:10019000DB010008DB010008DB01000800000000B3
:1001A000DB010008DB010008DB010008DFF80CD0F0
:1001B00000F060F800480047D9260008480E0020EB
:1001C0000648804706480047FEE7FEE7FEE7FEE7F1
:1001D000FEE7FEE7FEE7FEE7FEE7FEE7991100080F
:1001E000AD01000840EA01039B0703D009E008C9FC
:1001F000121F08C0042AFAD203E011F8013B00F8EC
:10020000013B521EF9D27047D2B201E000F8012B37
:10021000491EFBD270470022F6E710B513460A4686
:1002200004461946FFF7F0FF204610BD30B50446DE
:100230000020034600E05B1C934203D2E05CCD5CEF
:10024000401BF8D030BD30B50B46014600202022BF
:10025000012409E021FA02F59D4205D303FA02F5D3
:10026000491B04FA02F52844151EA2F10102F1DC33
:1002700030BD0000064C074D06E0E06840F0010389
:1002800094E8070098471034AC42F6D3FFF792FF8A
:10029000703000089030000870B58C1810F8015BC1
:1002A00015F0070301D110F8013B2A1106D110F80F
:1002B000012B03E010F8016B01F8016B5B1EF9D113
:1002C0002B0705D40023521E0DD401F8013BFAE799
:1002D00010F8013BCB1A921C03E013F8015B01F804
:1002E000015B521EF9D5A142D8D3002070BD000099
:1002F00010B504460123224600210B4801F083FB80
:100300000121094801F0D9FB00BF0221064801F094
:1003100073FB0028F9D00221034801F069FB024871
:1003200001F0C7FB10BD00000020014010B501F036
:100330001AFB002001F000FC00220221144801F009
:10034000CEFB00224FF48071114801F0C8FB002160
:100350000F4801F0FDFA022201210D4801F0BCFA1C
:10036000002201210A4801F02BFB0022012108484C
:1003700001F00CFB0121880501F07EFA044801F030
:10038000FCFA012001F0EAFB014801F05FFA10BD20
:100390000020014010B5012300220321134801F081
:1003A0000EFE022300220321104801F008FE042360
:1003B000002203210D4801F002FE08230022032140
:1003C0000A4801F0FCFD102300220321074801F038
:1003D000F6FD202300220321044801F0F0FD102344
:1003E00000220321024801F0EAFD10BD0000024096
:1003F0000008024010B50446044850F8243000229A
:100400000321034801F0DBFD10BD000008000020BF
:10041000000002400146642901DA00200CE040F2AD
:100420001452914203DA642901DB782004E040F29F
:100430001452914200DBFF207047024642FA01F35A
:1004400003F00100704700BFFEE7000030B5024630
:100450000B4600206BB9002108E001EB41050D4C73
:1004600004EB4504247920444C1CE1B29142F4DBB6
:100470000EE0012B0CD1002108E001EB4105054CF9
:1004800004EB4504647920444C1CE1B29142F4DB56
:1004900030BD00007C07002010B502460B4600204E
:1004A000002103E0545C60404C1CA1B29942F9DB8E
:1004B00010BD704710B5012206212B4801F0A6FBA4
:1004C00001220721294801F0A1FB0222002128482E
:1004D00001F05AFB264948780021FFF7AEFF254975
:1004E000497860F341012348417049082248407827
:1004F00061F34100204948701D4948780121FFF708
:100500009CFF1C49497860F382011A4841708908B0
:100510001948407861F382001749487014494878B7
:100520000221FFF78AFF1349497860F3041111484B
:10053000417009091048407861F304100E49487071
:100540000B4948780321FFF778FF014609484078B6
:1005500061F30000074948700749497860F30001DA
:100560000548417010BD00002F010020300100201F
:10057000230A00209E0800209B07002010B50120C0
:1005800001F0CCFC20B101200249C87201F0C0FC8E
:1005900010BD00004004002010B54FF4806001F051
:1005A000BDFC28B101200E490871800201F0B0FCA9
:1005B0004FF4006001F0B2FC28B101200849087036
:1005C000C00201F0A5FC4FF4805001F0A7FC28B157
:1005D000012004490870000301F09AFC10BD0000DE
:1005E000400400201801002010B5022001F096FC04
:1005F00028B101200249C871022001F089FC10BD18
:100600004004002010B5042001F088FC28B101202E
:100610000249C870042001F07BFC10BD400400209A
:1006200010B5082001F07AFC28B101200249887237
:10063000082001F06DFC10BD4004002010B5102012
:1006400001F06CFC28B1012002498871102001F0F2
:100650005FFC10BD4004002010B5202001F05EFCBE
:1006600028B1012017498870202001F051FC40205A
:1006700001F054FC28B1012012494872402001F0D9
:1006800047FC802001F04AFC28B101200D49487147
:10069000802001F03DFC4FF4807001F03FFC28B158
:1006A000012008494870000201F032FC4FF400704C
:1006B00001F034FC28B1012002490872400201F027
:1006C00027FC10BD4004002010B5032200210620A5
:1006D00002F076F80021012002F0A6F9002211466E
:1006E000012001F0B7FB012001F012FC03220021E0
:1006F000072002F065F80121084602F095F9002272
:100700001146022001F0A6FB022001F001FC0322A9
:100710000021082002F054F80221012002F084F99F
:1007200000221146042001F095FB042001F0F0FBAB
:1007300003220021092002F043F80321012002F0E6
:1007400073F900221146082001F084FB082001F013
:10075000DFFB032200210A2002F032F804210120ED
:1007600002F062F900221146102001F073FB102004
:1007700001F0CEFB03220021172002F021F8052111
:10078000012002F051F900221146202001F062FB05
:10079000202001F0BDFB03220021172002F010F8F9
:1007A0000621012002F040F900221146402001F00C
:1007B00051FB402001F0ACFB03220021172001F087
:1007C000FFFF0721012002F02FF9002211468020AF
:1007D00001F040FB802001F09BFB03220021172049
:1007E00001F0EEFF0821012002F01EF9002211465F
:1007F0004FF4807001F02EFB4FF4807001F088FB05
:1008000003220021172001F0DBFF0921012002F063
:100810000BF9002211464FF4007001F01BFB4FF45E
:10082000007001F075FB03220021282001F0C8FFB1
:100830000A21012002F0F8F8002211464FF48060EE
:1008400001F008FB4FF4806001F062FB03220021FD
:10085000282001F0B5FF0B21012002F0E5F800226D
:1008600011464FF4006001F0F5FA4FF4006001F01A
:100870004FFB03220021282001F0A2FF0C210120C0
:1008800002F0D2F8002211464FF4805001F0E2FA53
:100890004FF4805001F03CFB10BD000010B5044641
:1008A000074850F82410074801F085FB044850F829
:1008B000243000221146034801F081FB10BD0000E6
:1008C000200000200004024010B5002408E0214868
:1008D00050F82430002211461F4801F070FB641CC0
:1008E0000C2CF4DB002410E01C4850F824300022CB
:1008F00011461B4801F063FB1A4850F824300022CF
:100900001146194801F05BFB641C102CECDB4FF422
:10091000006300221146154801F051FB4FF480534B
:1009200000221146114801F04AFB4FF40043002217
:1009300011460E4801F043FB2023002211460C48CB
:1009400001F03DFB4FF4805300221146024801F0B4
:1009500036FB10BD200000200004024050000020A3
:10096000000C0240900000200010024000000240F5
:100970000008024000BFFEE710B501F0F5FC10BD15
:1009800010B501F051FD10BD10B5394800780028B0
:100990006CD001220721374801F038F936494878F0
:1009A0000021FFF74AFD08B1012000E00020334993
:1009B0000870314948780121FFF73FFD08B1012057
:1009C00000E000202E4908702C48007880B10846CD
:1009D000007868B92B48007850B9012207212A48CD
:1009E00001F014F901220321274801F00FF93AE040
:1009F0002248007880B92248007868B12148007800
:100A000050B901220721214801F000F901220321F8
:100A10001E4801F0FBF826E01848007880B118481D
:100A2000007868B11748007850B9012207211848AA
:100A300001F0ECF801220321154801F0E7F812E07B
:100A40000E48007810B90E48007810B10D480078B3
:100A500048B1012207210F4801F0D8F801220321F3
:100A60000C4801F0D3F800200149087010BD0000C7
:100A70001801002030010020230A00203701002047
:100A80003801002015010020320100203301002030
:100A9000340100203501002000BFFEE72DE9FC41B4
:100AA00007460C469046E11704EB5171C910A4EBC0
:100AB000C10111B10020BDE8FC81002510E0002635
:100AC00005E006EBC500385C0DF80600761C082E24
:100AD000F7DB0821684600F018FB08F805006D1CDC
:100AE000E11704EB5171B5EBE10FE8DB2146E017AC
:100AF00004EB5070C0F3C700DDE7704710B5002865
:100B000007DA0A07140E054A00F00F031B1FD4541E
:100B100003E00A07130E024A135410BD18ED00E05B
:100B200000E400E02DE9F84354490868496800EB07
:100B30004001534800EB410090F804804F49086899
:100B4000496800EB40014E4800EB410045794C49B3
:100B50000A390989C1F30901491E11FB08F000F0A7
:100B6000C8FA00F0FF0909F10300C6B244480A3888
:100B7000407A0121C1EB900010FB05F0C01CC7B208
:100B80004048036841684048B0F90000C217181A8D
:100B900061EB020100235840594008436BD13B48A8
:100BA000007801281BD100200123394A042100903C
:100BB000384800F04DFD00240CE03548015D364812
:100BC00002F097F900BF0721334802F00AFA002823
:100BD000F9D0641C0C2CF0DB00202C490870FFF7C6
:100BE00069FC2E4A4FF480712D48FFF757FF2348C8
:100BF00001684068881CC0B24FF00203294A3146A0
:100C000000902648A0F1030000F022FD00240CE033
:100C10002448015D204802F06CF900BF07211E48FE
:100C200002F0DFF90028F9D0641C06F10800A042A8
:100C3000EED8002D1FDD114801684068881CC0B245
:100C40004FF00303184A39460090184800F000FDA1
:100C500000240CE01448015D0F4802F04AF900BF7F
:100C600007210D4802F0BDF90028F9D0641C07F1F6
:100C70000800A042EED8BDE8F8830000E80000209C
:100C80007C070020E0000020D0000020160100209A
:100C9000D3090020F0000020001401409E0700202E
:100CA0005004002040010020400200209E08002047
:100CB00010B54FF4407001F0E5FD012200214820FD
:100CC00001F07EFD00221146492001F079FD01224C
:100CD00011461C2001F074FD10BD70472DE9FE4F38
:100CE0004848016840684848B0F900000E1A474972
:100CF0000868496800EB4001454800EB4100047971
:100D0000A6F101073F48016840684D1E3E48B0F912
:100D10000090B0F9000000EB040A3D48A0F10A0081
:100D20000089C0F3090B04FB05F00290A4F1010057
:100D30003549B1F90010A5EB010100FB01F0324982
:100D4000098814FB010001902F48008814FB00F172
:100D5000A4F1010014FB00102B49B1F9001021444B
:100D6000A5EB010104FB01000090B44206DB002E5C
:100D700004DD002F02DBF8B2FFF790FDBC4205DD79
:100D8000002F03DBF9B2234800F09CF9002D20DB93
:100D9000A94508DD002D06DB1F4A0299501822469E
:100DA0001C49FFF71FFAAA4508DD4D4506DB621E08
:100DB000194B019958181749FFF714FAAB4508DD8C
:100DC000554506DB144A0099501822461149FFF791
:100DD00009FA10210F4800F083F94FF0000801E0F4
:100DE00008F10108B8F5FA7FFADBB44207DD002EFE
:100DF00005DB0A4850F82610094800F0FFF8BDE866
:100E0000FE8F0000E0000020D0000020E80000205D
:100E10007C07002040040020500400202000002017
:100E2000000402402DE9FF5F5F490868496800EB54
:100E300040015E4800EB410041795B48036840682F
:100E4000591A70F1000001DA012000E000200028AA
:100E50007EDB4FF00309564908684968C7B2554818
:100E6000B0F900003D1A50490868496800EB40019C
:100E70004E4800EB410044794E48B0F900A0B0F96B
:100E8000000000EB040B49480A38407A80080390C0
:100E900014FB07F002904748008814FB00F1601E25
:100EA00000FB051001904348008814FB00F1601E10
:100EB00014FB0010291B01FB0400009010213E4888
:100EC00000F00EF9AC4209DD002D07DBC5F105008D
:100ED0003A4A52F820103A4800F07CF84FF00008E7
:100EE00014E000260EE0C6F10501364A12F8210092
:100EF000FFF7FEF906EB8601334A02EB810121F888
:100F00001800761CA642EEDB08F10108C845E8DBB4
:100F1000002611E006EB86012B4A02EB81004946D0
:100F200001F03EFC294921F8160031F81600FFF7C0
:100F300071FA21498855761CA642EBDBAC4205DDEF
:100F4000002D03DBE9B21C4800F0BCF8BA4500E014
:100F500028E006DD1E49029A881822461649FFF746
:100F600041F9BB4508DD574506DB621E1849019B68
:100F7000C8181149FFF736F90398B84208DD5F45F4
:100F800006DB1349009A881822460B49FFF72AF915
:100F9000AC4206DD002D04DBC5F10501C8B2FFF748
:100FA00029FA00BFBDE8FF9FE80000207C07002071
:100FB000E0000020D2000020700500200800002082
:100FC00000000240FC000020AA060020500500207E
:100FD000A108002070B505460C46234600220121D9
:100FE000284600F0ECFF234602220021284601F0AB
:100FF0000DF82146284600F0DEFF70BD70B50546AD
:101000000C46234600220121284600F0D8FF234643
:1010100002220021284600F0F9FF2146284600F070
:10102000CCFF70BD70B50F4C2068000E0E490870E3
:101030002068000C48702088000A88702078C870EA
:1010400000250CE00848415D084801F052FF00BF50
:101050000721064801F0C5FF0028F9D06D1C042DBA
:10106000F0DB70BD107AFF1FF0000020001401407B
:1010700010B54FF4406001F0A1FC40F6014001F0D2
:101080009DFC40F6024001F099FC40F6034001F05F
:1010900095FC40F6044001F091FC41F20E1001F085
:1010A0008DFC41F2041001F089FC41F2051001F0C1
:1010B00085FC41F2081001F081FC4FF4403000F053
:1010C00035FC10BD0246102900DB7047084603E0DE
:1010D000431CD35C1354401C0F28F9DB00BFF4E71A
:1010E0000246002002E000231354401C8842FADB31
:1010F00070470146082291FBF2F091FBF2F302FBEC
:10110000131303B1401C7047704710B502460B46DD
:101110000024002104E0505C40EA440084B2491CF1
:101120009942F8DBE0B210BD10B502230022012184
:10113000164800F044FF042300220121134800F068
:101140003EFF082300220121104800F038FF02234F
:101150001A4600210D4800F059FF04230222002105
:101160000A4800F053FF082302220021074800F03C
:101170004DFF0221054800F020FF0421034800F044
:101180001CFF0821014800F018FF10BD00080240B4
:1011900010B500F0EDFC10BD08B53048006840F413
:1011A00070002E4908602E48006840F001002C496C
:1011B000086000BF2A48006800F002000028F9D04B
:1011C00000BF27480830006840F0800024490831FB
:1011D00008600020009002E00098401C00900098F9
:1011E0005028F9D31E480830006840F090001C4990
:1011F000083108600020009002E00098401C009038
:1012000000985028F9D300BF15480830006820F036
:10121000030013490831086011480068114908406B
:101220000F4908600846006820F48020086000200C
:101230000B490831086000BF0948083000680020E9
:101240000028F9D108480649091D08600020044912
:101250000C31086001F03EFC08BD000088ED00E0A4
:1012600000380240FFFFF6FE1030002410B50121C7
:10127000880701F0B8FD002847D02448016840687D
:101280000023C91A984116DB2148036840680022F0
:1012900011469A1A88410EDB1E480089C0F30900E6
:1012A00000211B4B1A685B68801A994103DBFFF72A
:1012B00015FDFFF737FC0121880701F091FD164865
:1012C000007878B1124801684068502359400143C2
:1012D00008D1491E0E4A116051600F480078401E27
:1012E0000D4908700A4801684068C83970F100006B
:1012F00002DB0120094908700548036840685A1C50
:1013000040F1000002490A60486010BDE80000207A
:10131000E0000020720700201701002016010020C5
:101320001FB54FF4805001F049FB4FF0804001F0B1
:101330003FFC0020ADF800000C4802900020ADF802
:101340000200ADF8040069464FF0804001F0F8FC5F
:101350000121880701F044FD0121880701F03CFDCF
:101360004FF0804001F0E6FC1FBD00003F420F003F
:1013700070B50521544801F034FE00287ED0524853
:1013800001F0B2FDC5B25148514909784554514860
:101390000078032816DA50484E490978405CA84284
:1013A0000AD14C480078401C4A49087048480078E7
:1013B000401C4749087085E00020464908704449B0
:1013C00008707FE042480078401C414908703F485F
:1013D000C0780978884275D100203D4908703D49A0
:1013E00008703A48807910B1042869D15AE0002188
:1013F0004FF0804001F0DAFB2B2234493748FEF7EA
:10140000F1FE29213148FEF706FF002446E004EBF7
:10141000440132480A3000EB4100314902680A6059
:101420008088888004222F492D48FEF7FFFE30BBBC
:1014300005202D490870811F2C4A11605160E0176A
:101440002B490C6048600A4611685268C8B20021F6
:10145000FEF7FCFF00B227490880254A1168526850
:10146000C8B20121FEF7F2FF00B22349088004EB65
:1014700044011A480A3000EB410001E023E00CE08F
:1014800000791E49087004EB440114480A3000EB4F
:10149000410040791A49087002E0641C052CB6DB53
:1014A00000BF0EE00948C27801461648FEF79AFED2
:1014B0001448B0F80700012801D11349087000E072
:1014C00000BF00BF00BF70BD0014014080060020B7
:1014D000D4000020D5000020D60000207207002094
:1014E000F6000020F000002017010020E00000209E
:1014F000E8000020D0000020D20000209B07002040
:101500009E080020A10900201501002000BFFEE771
:1015100010B54FF400720721224800F01DFD4FF472
:10152000806207211F4800F017FD4FF4007301226D
:1015300002211C4800F043FD4FF480630122022188
:10154000184800F03CFD4FF40073022200211548BA
:1015500000F05CFD4FF4806302220021114800F08E
:1015600055FD114801F0CAFC4FF4E1310E4801F07D
:1015700047FC00210C4801F050FD00210A4801F011
:101580006CFD0021084801F058FD0821064801F0D3
:101590005CFD0421044801F048FD034801F01CFDF6
:1015A00010BD0000000002400010014010B54022B4
:1015B0000821254800F0D0FC80220821224800F0B4
:1015C000CBFC4023012202211F4800F0F8FC8023BD
:1015D000012202211C4800F0F2FC402302220021DB
:1015E000194800F013FD802302220021164800F064
:1015F0000DFD164801F082FC4FF4E131134801F073
:10160000FFFB0021114801F008FD00210F4801F007
:1016100024FD00210D4801F010FD08210B4801F0C8
:1016200014FD0421094801F000FD084801F0D4FC34
:1016300040F20531054801F0E3FC04220021472077
:1016400001F0BEF810BD0000000802400014014087
:101650002DE9F04706460D4617469846DDF82090DE
:101660003C46FF2D02D90020BDE8F08710480188D4
:1016700021808078A0700F48007820710D48007894
:10168000401C0C49087084F8059084F8068005F128
:101690000800E0702A463146E01DFEF7A3FDE17820
:1016A0002046FEF7F9FEE178491E60540120DBE791
:1016B0006A300008140100200FB4054B10B503A9CF
:1016C000044A029800F018F810BC5DF814FB000002
:1016D000351F00083C01002002E008C8121F08C1A5
:1016E000002AFAD170477047002001E001C1121FA3
:1016F000002AFBD1704700002DE9FF4F89B09B46BF
:101700000446002506E025280BD05A460B99904741
:10171000641C6D1C20780028F5D10DB02846BDE86A
:10172000F08F0027B8460122474900E0074314F82C
:10173000013F203B02FA03F00842F7D120782E281F
:1017400019D114F8010F47F004072A280ED06FF0C2
:101750002F022078A0F1300109290CD808EB88016C
:1017600002EB410100EB0108641CF2E70A98641CDB
:1017700050F8048B0A9020780028CED0642808D036
:10178000692806D075281ED05A460B9990476D1CC3
:1017900058E00A994FF00A0901C90A91002802DAB3
:1017A00040422D2102E0390504D52B218DF820106F
:1017B000012103E0F90704D02021F7E78A4608AEAB
:1017C0000DE00021FAE70A994FF00A0901C90A91D0
:1017D000F7E74946FEF737FD303106F8011D0028CE
:1017E000F7D1ADEB060000F12009780701D44FF0E6
:1017F0000108C84502DDA8EB090000E00020804692
:10180000002706E008A85A46C05D0B9990476D1C5A
:101810007F1C5745F6DB04E030205A460B99904771
:101820006D1CB8F10001A8F10108F5DC05E016F81F
:10183000010B5A460B9990476D1CB9F10001A9F1B3
:101840000109F4DC641C65E709280100816841F0A6
:101850000801816000BF816801F008010029FAD108
:10186000816841F00401816000BF816801F00401DA
:101870000029FAD170470000A1B100F4800232B112
:10188000134A126842F48002124BC3F8042300F496
:101890000002DAB10E4A126842F400020D4BC3F89E
:1018A000042313E000F4800232B1094A126822F4E2
:1018B0008002084BC3F8042300F4000232B1044A4A
:1018C000126822F40002034BC3F80423704700009F
:1018D000042301400020014030B5012902D0022933
:1018E00020D10FE06AB1102A0BD8C36A23F4700329
:1018F000C362C36A541E4FF4700505EA04542343BF
:10190000C36210E06AB1042A0BD8836B23F440133E
:101910008363836B541E4FF4401505EA045423433C
:10192000836300E000BF00BF30BD000006490968C6
:1019300021F4E021054AC2F804131146D1F804133A
:101940000143C2F804137047042301400020014002
:1019500021B1826842F40062826003E0826822F46E
:1019600000628260704710B540F6081001F04AF836
:1019700040F6081001F034F810BD816801F0010153
:1019800019B9816841F0010181607047012902D0D5
:10199000022912D108E0836823F0405383608368F2
:1019A00043EA0273836009E0836823F44013836091
:1019B000836843EA0253836000E000BF00BF7047C2
:1019C000012902D0022910D107E0836823F0706357
:1019D000836083681343836008E0836823F4702383
:1019E000836083681343836000E000BF00BF7047DB
:1019F00002688A43026070470246002013680B4069
:101A000003B101207047F0B51D4606290CDA436B7F
:101A100001EB81071F26BE40B34301EB810602FAAA
:101A200006F63343436322E00C290EDA036B8E1F64
:101A300006EB86071F26BE40B3438E1F06EB8606C5
:101A400002FA06F63343036311E010290FDAC36A82
:101A5000A1F10C0606EB86071F26BE40B343A1F199
:101A60000C0606EB860602FA06F63343C3620A2A20
:101A70000CDA046902EB42070726BE40B44302EBCE
:101A8000420605FA06F63443046111E0122A0FDC1F
:101A9000C468A2F10A0606EB46070726BE40B44317
:101AA000A2F10A0606EB460605FA06F63443C460C0
:101AB000F0BD0146C86C80B27047012902D00229EE
:101AC0000AD104E0826842F08042826005E08268C8
:101AD00042F48002826000E000BF00BF7047AAB1FC
:101AE00001F480731BB1436843F48073436001F4D5
:101AF00080631BB1436843F48063436001F00203D9
:101B0000CBB1836843F00203836014E001F4807377
:101B10001BB1436823F48073436001F480631BB1FD
:101B2000436823F48063436001F002031BB18368C0
:101B300023F00203836070470649096821F01F0102
:101B4000054AC2F804131146D1F804130143C2F840
:101B5000041370470423014000200140034908603A
:101B600000BF024909680029FBD17047000000202E
:101B70000448006820B103480068401E014908601D
:101B8000704700000000002070B505460E46144660
:101B90001948056019480680194804800120194930
:101BA00008708102184800F052FA4FF48471164808
:101BB00000F067FB40F20911134800F062FB4FF49C
:101BC0008571114800F05DFB00BF40F201610E48D5
:101BD00000F005FB0028F8D1022C03D1A1020A482D
:101BE00000F03DFA084800F0B5FB00BF044800884B
:101BF0000028FBDC70BD0000240100202C01002027
:101C0000280100202E010020005C00402DE9F04753
:101C100006460D4614464FF00008C146C24600274E
:101C20002846E91705EB5171C910A5EBC10101F078
:101C3000FF0ACAF10800C7B22046E11704EB517150
:101C4000C1F3C708E11704EB5171C910A4EBC1013E
:101C500001F0FF09002040490870BAF1000F25D1BA
:101C60000EE008203D4908803D4805803D4806605B
:101C700000F07AF800F0A2F805F10800C5B20836C5
:101C8000B8F10000A8F1010101F0FF08E9D1B9F1B4
:101C9000000F5BD03148A0F80090314805803148F2
:101CA000066000F061F800F089F84FE0BC420ADA03
:101CB0002A4804802A4805802A48066000F054F823
:101CC00000F07CF842E0E01B84B22046E11704EB10
:101CD0005171C1F3C708E11704EB5171C910A4EBAE
:101CE000C10101F0FF0967B11C4807801C4805804D
:101CF0001C48066000F038F800F060F8E819C5B23A
:101D00003E440EE01548A0F80080154805801548AF
:101D1000066000F029F800F051F805F10800C5B29E
:101D20000836B8F10000A8F1010101F0FF08E9D17F
:101D3000B9F1000F0AD00948A0F8008008480580D2
:101D40000848066000F010F800F038F80120024959
:101D50000870BDE8F08700002E0100202801002057
:101D60002A0100202001002010B500201049087031
:101D70004FF484710F4800F084FA40F209110D48C5
:101D800000F07FFA4FF485710A4800F07AFA00BF3C
:101D900040F20161074800F022FA0028F8D1054816
:101DA00000F0D8FA00BF044800880028FBDC10BD12
:101DB0002E010020005C00402801002008B5002012
:101DC000009041E000BF40F20161204800F007FAB6
:101DD0000028F8D11D4800F0BDFA00BF4FF4A06103
:101DE0001A4800F0FCF90028F8D019480088410092
:101DF0006FF00102154800F095FA00BF1348143047
:101E00000068009040F20241009808400028F5D098
:101E1000009800F0020040B140F201510B4800F080
:101E2000CAF90A4800F09BFA08BD40F20A51074877
:101E300000F0C1F9054800F092FA00BF03480068BD
:101E400000F400700028F9D1BCE70000005C0040FD
:101E50001C01002010B52D4B1B6883432B4C2360C5
:101E6000231D1B688343241D2360231D1B6883439C
:101E7000241D2360231D1B688343241D236011B18F
:101E800001290ED105E0214B1B6803431F4C236041
:101E900008E01E4B1B1D1B6803431C4C241D2360C4
:101EA00000E000BF00BF32B1012A11D0022A1CD0CD
:101EB000032A27D127E0154B08331B680343134C33
:101EC00008342360231D1B688343241D23601BE00B
:101ED0000E4B08331B6883430C4C08342360231DCE
:101EE0001B680343241D23600EE0084B08331B6866
:101EF0000343064C08342360231D1B680343241D41
:101F0000236001E000BF00BF00BF10BD003C0140E6
:101F10000149086070470000143C01400146044834
:101F20000068084008B1012070470020FCE700006D
:101F3000143C014070B504460D46E1B2054800F07E
:101F4000D8FF00BF0721034801F04BF80028F9D063
:101F5000204670BD00140140F0B503461C6A5D6A5E
:101F600000200DE00126864016403EB187000F2676
:101F7000BE40B443860001FA06F63443461CB0B2B4
:101F80000828EFD3082011E00126864016405EB1F4
:101F9000A0F10806B7000F26BE40B543A0F1080621
:101FA000B60001FA06F63543461CB0B21028EBD352
:101FB0001C625D62F0BD8162704781617047F0B55F
:101FC00004460D4616462168E268002019E0012704
:101FD00087401F409FB14FEA400C032707FA0CF7D8
:101FE000B943470005FA07F739434FEA400C032786
:101FF00007FA0CF7BA43470006FA07F73A43471CBB
:10200000B8B21028E3D32160E260F0BDF0B50C4611
:102010001546012C03D146681E43466002E046681F
:102020009E434660826800210DE001268E401E40DE
:102030003EB14F000326BE40B2434E0005FA06F6FD
:1020400032434E1CB1B21029EFD38260F0BD0A4674
:102050000021016821F480611143016070470A4644
:102060000021016821F40061114301607047000004
:102070002DE9F05F04460E469346022000F00CFC6A
:1020800007463148B7FBF0F9B9F13C0F01D34FF0E7
:102090003C09D4F804A02AF03F0A4AEA090AC4F825
:1020A00004A02A4886421ED82748B7FBF0F000F16A
:1020B0000108B8F13C0F02D33C20206207E0B8F1E0
:1020C000020F02D80220206201E0C4F820807000D4
:1020D000B7FBF0F5042D00D20425E069C5F30B0130
:1020E0000843E0612EE01A4886422BD84FF49670E0
:1020F00009FB00F04FF47A71B0FBF1F0401C206254
:10210000BBF1000F08D106EB4600B7FBF0F5E06924
:1021100020F48040E06109E006EBC60000EB061009
:10212000B7FBF0F5E06940F48040E061C5F30B00D7
:1021300008B945F00105E06940F40040E061E0695C
:102140002843E061BDE8F09F40420F00A0860100F7
:10215000801A060010B541F2170000F02FFC002293
:1021600009490A48FFF784FF202300221146074847
:1021700000F0E2F8054800F019F84FF480610348D8
:10218000FFF765FF10BD0000A0860100005C004065
:1021900001460869C0B27047CAB2026170470000C8
:1021A00020200149088070471C010020016841F08F
:1021B00001010160704710B540F20152914202D115
:1021C000426982690AE000EB9112126801F01F0473
:1021D0000123A3409A4300EB91131A6010BD10B580
:1021E000024602EB9110006801F01F040123A34096
:1021F000184008B1012010BD0020FCE710B54FF4D5
:10220000406000F0DBFB40F6024000F0D7FB4FF4EB
:10221000807204211248FFF79FFE4FF400720421E0
:102220001048FFF799FE4FF48073012202210C48F9
:10223000FFF7C5FE4FF48073022201210848FFF723
:10224000E5FE4FF40073012202210648FFF7B7FEB6
:102250004FF40073022201210248FFF7D7FE10BDA0
:10226000000002400008024010B500EB9112126815
:1022700001F01F040123A3409A4300EB91131A605D
:1022800010BD10B500EB9112126801F01F0401237C
:10229000A3401A4300EB91131A6010BD10B5094A10
:1022A000914202D1426982690AE000EB91521268C0
:1022B000C1F304440123A3409A4300EB91531A60F5
:1022C00010BD000009010105F0B5024600230024FD
:1022D000506800F48065C1F38910105801F01F07A1
:1022E0000126BE4000EA060302EB91500068C1F3EC
:1022F00004470126BE4000EA06040848814202D095
:102300000748814204D113B10DB1012300E000233D
:1023100014B10BB10120F0BD0020FCE70901060556
:102320000901070512F1020F02D121F0010101E0BC
:1023300041F001010161704730B50C460021016890
:1023400021F0020121430160C3F3090342EA0305BE
:10235000856030BD016841F480710160704701689B
:1023600041F400710160704710B527492748FFF715
:10237000ABFF18B124492548FFF790FF24492348B3
:10238000FFF7A2FF18B122492048FFF787FF214934
:102390001E48FFF799FF18B11E491C48FFF77EFF42
:1023A0001D491A48FFF790FF18B11B491748FFF75E
:1023B00075FF1A491548FFF787FF18B117491348E9
:1023C000FFF76CFF16491148FFF77EFF18B114495B
:1023D0000E48FFF763FF13490C48FFF775FF18B16C
:1023E00010490A48FFF75AFF4FF484710748FFF776
:1023F0003BFF4FF485710548FFF736FF40F20911A6
:102400000248FFF731FF10BD08010A05005C0040DB
:1024100008010F0508010E0508010B050801090553
:102420000801080508010C0510B59E480078002831
:1024300071D19D48007807286AD2DFE800F00413C4
:1024400020696937530099499948FFF73DFF40B12A
:102450006FF0010240219648FFF764FF0120924986
:10246000087056E093499248FFF72EFF30B191492A
:102470008F48FFF713FF02208B49087049E08E490F
:102480008B48FFF721FF80B18C480088C1B2884893
:10249000FFF782FE00BF40F202518548FFF79FFE22
:1024A0000028F8D005208049087032E08249804831
:1024B000FFF70AFFA8B182480068017880480068E9
:1024C000401C7F4B18607A48FFF766FE7D48008805
:1024D000401E7C4908800846008810B906207249D1
:1024E000087016E07248FFF73AFF4FF484717048A5
:1024F000FFF7BAFE4FF485716D48FFF7B5FE40F265
:1025000009116B48FFF7B0FE00206749087000E032
:1025100000BFC6E0FFE7634800780128F9D16A48A8
:102520000078062873D2DFE800F003121F435973C6
:102530005E495F48FFF7C8FE40B16FF001024021DD
:102540005B48FFF7EFFE01205F490870A8E059499A
:102550005748FFF7B9FE30B156495548FFF79EFE80
:102560000220594908709BE053495148FFF7ACFEDF
:10257000E8B156480088C1B24D48FFF70DFE00BFD4
:1025800040F202514A48FFF72AFE0028F8D0484896
:10259000FFF7E5FE00BF4648006800F40070002821
:1025A000F9D14348FFF7D6FE03204749087077E08A
:1025B0003E493F48FFF788FE78B1012240213C4860
:1025C000FFF7B0FE3F480088032803DA00213848AF
:1025D000FFF73DFD04203C49087061E0354934486F
:1025E000FFF772FE90B133493148FFF757FE354887
:1025F0000088012803D033480088022803D1002135
:102600002B48FFF724FD05202F49087048E046E0DD
:102610002F492748FFF758FEF0B32A4800880028C2
:102620003CDD2848008803280BD100BF40F202514E
:102630001F48FFF7D4FD0028F8D000211C48FFF701
:1026400006FD1B48FFF7A4FD2249096808702148D0
:102650000068401C1F4908601A480088401E19493C
:10266000088008460088B8B900201749087010484B
:10267000FFF775FE4FF484710D48FFF7F5FD4FF439
:1026800085710B48FFF7F0FD40F209110848FFF78C
:10269000EBFD0020034900E000E0087000E000BF0F
:1026A00000BF10BD2E0100201A0100200901000505
:1026B000005C004009010105090107052A0100200D
:1026C0002001002028010020190100202C010020F9
:1026D000090106052401002000F040FAFEF7C8FCBD
:1026E000FEF7E6FAFEF7F0F8FDF7EEFFFEF710FF53
:1026F000FEF75CFFFFF782FDFFF72CFDFFF750FDB3
:10270000012206211948FFF781FA01220721184802
:10271000FFF77CFA012200211648FFF735FA16A0D0
:10272000FEF7CAFF0A20FFF719FA12480078C0F135
:10273000FF0114A0FEF7C0FF0A20FFF70FFA15A053
:10274000FEF7BAFF0A20FFF709FAFEF7E9FDFDF7E9
:10275000EDFDFDF71FFEFEF7E7FCFEF763FC03E06F
:10276000FEF760FBFEF710F9FAE700002F010020EA
:1027700030010020330A002041542B4D4F44453D89
:10278000300D0A0041542B524643483D25640D0A42
:102790000000000041542B4D4F44453D310D0A00CF
:1027A00010B503460024002204E033F81200204450
:1027B00084B2521C8A42F8DB94FBF1F080B210BD67
:1027C0002DE9F04103460D46164600240027A04699
:1027D0002A48006800F4E060B0F5E06F03D100BF64
:1027E0004FF0040830E02548006800F4E060B0F5E0
:1027F000C06F03D101274FF0030825E01F48006890
:1028000000F4E060B0F5A06F02D10227B8461BE0EB
:102810001A48006800F4E060B0F5806F03D1032728
:102820004FF0010810E01548006800F4E060B0F5D2
:10283000407F03D104274FF0000805E04FF4A0606B
:1028400000F020F80227B846C7F1040005FA00F4AA
:10285000C8F104010F20C840304004432401084857
:10286000C45403F01F01012088405911890001F16F
:10287000E021C1F80001BDE8F08100000CED00E0AE
:1028800000E400E002490143024A11607047000081
:102890000000FA050CED00E02DE9F04F8CB0064683
:1028A00000200A903EA090E8004CC068CDE905BE2B
:1028B000CDF810A007900FF2EC0ADAE9000ACDE992
:1028C000020A0FF2E00ADAE9000ACDE9000A384804
:1028D0000068C0F381000B900B9820B1012804D050
:1028E000022828D103E0334927E0334925E0304866
:1028F000001F006800F03F072D48001F0068C0F36C
:10290000881C2B48001F0068C0F30140401C4FEAA0
:1029100040092748001F006800F48008B8F5800FC0
:1029200001D1254B00E0234BB3FBF7F000FB0CF08B
:10293000B0FBF9F101E01F4900BF00BF1C4800686F
:10294000C0F3031404A8055D21FA05F218480068D5
:10295000C0F3822402A8055D22FA05F0099014480C
:102960000068C0F342341DF8045022FA05F00890C4
:1029700036B1012E06D0022E06D0032E0AD106E073
:102980000A9108E00A9206E009980A9003E0089884
:102990000A9000E000BF00BF0A980CB0BDE8F08FBD
:1029A00000000000000000000102030406070809FF
:1029B000083802400024F40040787D01074A02EB09
:1029C0009011D1F8001800F01F0301229A40114322
:1029D000024B03EB9012C2F800187047003002401F
:1029E000074A02EB9011D1F8001800F01F030122F2
:1029F0009A409143024B03EB9012C2F800187047C3
:102A000000300240074A02EB9011D1F8001800F0A4
:102A10001F0301229A401143024B03EB9012C2F8AC
:102A2000001870470030024070B504460B46CD17C1
:102A300001EB9575AD10A1EB8505AE000F25B540F6
:102A4000E843CD1701EB9575AD10A1EB8505AD0001
:102A500004FA05F2CD1701EB9575AD1035B1012DD6
:102A60000ED0022D18D0032D2ED121E0184B1B685B
:102A70000340174D2B602B461B6813432B6024E04B
:102A8000134B1B1D1B680340114D2D1D2B602B4646
:102A90001B6813432B6018E00D4B08331B68034081
:102AA0000B4D08352B602B461B6813432B600CE045
:102AB000074B0C331B680340054D0C352B602B4630
:102AC0001B6813432B6000E000BF00BF70BD000017
:102AD0000838014010B500F001F810BD00200021B9
:102AE0001D4A126842F480321B4B1A6000BF401C22
:102AF000194A126802F4003119B94FF6FF72904278
:102B0000F5D1154A126802F4003232B900BF124AF8
:102B1000126802F40032002AF9D00F4A0832126813
:102B20000D4B08331A601A4612681A601A4612686A
:102B30001A601A46126822F003021A601A461268D6
:102B400042F001021A6000BF034A0832126802F024
:102B50000402002AF8D070470038024010B512482D
:102B600000684FF47A71B0FBF1F4601EB0F1807F21
:102B700001D301200FE0601E4FF0E02148610F21DA
:102B80004FF0FF30FDF7BAFF00204FF0E0218861E1
:102B900007200861002008B100BFFEE70021481EA1
:102BA000FDF7ACFF10BD000004000020416270473B
:102BB00010B504465C49601A8C426FD019DC5B4941
:102BC000A4EB01008C424ED009DCB4F1804F2ED032
:102BD00057482044A0B3B0F5806F72D13AE0B0F509
:102BE000806F49D0B0F5006F4FD0B0F5406FF4D191
:102BF0007BE0B0F5923F5BD009DCB0F5806F73D01D
:102C0000B0F5644F0AD0B0F5684F5AD147E0B0F53F
:102C1000943F57D0B0F5963F53D15CE04FF410602D
:102C2000FFF7F0FE4FF41060FFF7DAFE79E04FF4A3
:102C30000060FFF7E7FE4FF40060FFF7D1FE70E0A1
:102C4000FFE740F60100FFF7DDFE40F60100FFF769
:102C5000C7FE66E040F60200FFF7D4FE40F6020031
:102C6000FFF7BEFE5DE040F60300FFF7CBFE40F647
:102C70000300FFF7B5FE54E040F60400FFF7C2FE84
:102C800040F60400FFF7ACFE4BE040F60500FFF70E
:102C9000B9FE40F60500FFF7A3FE42E02EE040F645
:102CA0000110FFF7AFFE40F60110FFF799FE38E084
:102CB0004FF41160FFF7A6FE4FF41160FFF790FE8E
:102CC0002FE02DE040F61110FFF79CFE40F61110AA
:102CD000FFF786FE25E040F61210FFF793FE40F660
:102CE0001210FFF77DFE1CE011E040F60600FFF732
:102CF00089FE40F60600FFF773FE12E040F607007B
:102D0000FFF780FE40F60700FFF76AFE09E040F695
:102D10000800FFF777FE40F60800FFF761FE00E0CD
:102D200000BF00BF10BD0000001C0040000C0040B0
:102D300000FCFFBF016841F0010101607047000025
:102D40000A8882621D4A90420ED0B0F1804F0BD0AB
:102D50001B4A904208D01B4A904205D01A4A904222
:102D600002D01A4A90420BD1026822F0700202602F
:102D700002684B881A43026002688B881A4302601B
:102D80008A68C262124A90420AD0124A904207D020
:102D9000026822F4407202600268CB881A43026023
:102DA000064A904202D0094A904201D10A7B02634E
:102DB000426942F001024261704700000000014098
:102DC0000004004000080040000C004000040140E6
:102DD0000010004000140040C2680A43C2607047FF
:102DE000CA43026170470246D06800EA01031069D5
:102DF000084010B10BB1012070470020FCE7000033
:102E00002DE9F04704460D460027B846B94600268E
:102E10003349601A8C4235D00CDC32482044E8B18A
:102E2000B0F5806F1FD0B0F5006F21D0B0F5406FC6
:102E300032D122E0B0F5806F29D0B0F5184F03D021
:102E4000B0F51C4F28D104E00320FFF725FD07460D
:102E500023E00320FFF720FD07461EE00220FFF7D6
:102E60001BFD074619E00220FFF716FD074614E098
:102E70000220FFF711FD07460FE00220FFF70CFDCF
:102E800007460AE00220FFF707FD074605E002209B
:102E9000FFF702FD074600E000BF00BFE06800F456
:102EA000004070B1780000EB5500B0FBF5F64FF62E
:102EB000F07006EA0008C6F3420948EA0900A0607B
:102EC0000CE007EB5500B0FBF5F64FF6F07006EAA4
:102ED000000806F00F0948EA0900A060BDE8F08785
:102EE0000078004000BCFFBF01464868C0F30800FE
:102EF0007047C1F3080242607047000010B50446F5
:102F00003349601A8C424DD00CDC32482044E0B189
:102F1000B0F5806F22D0B0F5006F31D0B0F5406FC2
:102F200052D136E0B0F5806F45D0B0F5184F03D0E0
:102F3000B0F51C4F48D11AE040F60410FFF762FDCF
:102F400040F60410FFF74CFD3FE040F61100FFF79C
:102F500059FD40F61100FFF743FD36E040F6120040
:102F6000FFF750FD40F61200FFF73AFD2DE040F666
:102F70000510FFF747FD40F60510FFF731FD24E08F
:102F800040F61300FFF73EFD40F61300FFF728FD63
:102F90001BE040F61400FFF735FD40F61400FFF784
:102FA0001FFD12E040F61E00FFF72CFD40F61E004C
:102FB000FFF716FD09E040F61F00FFF723FD40F67E
:102FC0001F00FFF70DFD00E000BF00BF10BD0000B7
:102FD0000078004000BCFFBFC16841F40051C160EF
:102FE000704710B5024602EB9110006801F01F0413
:102FF0000123A340184008B1012010BD0020FCE7C8
:1030000010B500EB9112126801F01F040123A340D8
:103010001A4300EB91131A6010BDC26822F4C0621B
:10302000C260C2680A43C26070470A460021C16894
:1030300021F004011143C1607047026922F440523B
:10304000026102690A43026170470A460021C168B1
:1030500021F008011143C1607047C26822F4805218
:10306000C260C2680A43C2607047A5FFCC0000007E
:103070009030000800000020400100009802000885
:10308000E430000840010020080D0000E8160008A8
:10309000413640787D01013202320432083210425A
:1030A00020290D191D290C291C29055A8020293099
:1030B00029058A4027390409124829242938091E7C
:1030C00021093E406174A5FFCCDAFF0159429169A4
:1030D0004F5A03534A05164907011213FF0FA52F34
:0430E0001F3F0F007F
:04000005080001AD41
:00000001FF
